:0200000002C03C
:0100040000FB
:14000600CFE5D2E0CDBFDEBFC051D0400AEA08830024E1E6CC
:14001A00F0E010E0E236F10711F00192FBCF0083E4E0F0E08D
:14002E00A0E6B0E010E0E530F10721F0C89531960D92F9CF0F
:1400420001D0FFCF14D01CD047D00FC000E22AD00093610085
:1400560020906000302E021511F005B94AD020906100209275
:14006A006000F0CF08958FEF84B985B9222427B828B88AB985
:14007E008BB9089522242092640020927C0083EC80937A0007
:1400920080917A008071E1F380917A00806180937A00089574
:1400A600AA92BA9200937C0080917A00836480937A0080919F
:1400BA007A008071E1F380917A00806180937A00A090790051
:1400CE00BB240A2D1B2DB990A990089522242092C50080E480
:1400E2008093C40088E08093C10086E08093C2002092C0004A
:1000F60008958091C0008072E1F30093C6000895D0
:00000001FF
